:1000000071C0000034C400008AC300007AC300003D
:10001000A0C40000DFC5000085C0000083C0000050
:1000200081C000007FC000007DC000007BC00000D8
:1000300079C0000077C0000075C0000073C00000E8
:1000400071C000006FC000006DC000006BC00000F8
:1000500069C0000067C0000065C0000063C0000008
:1000600061C000005FC000005DC000005BC0000018
:1000700059C0000057C0000055C0000053C0000028
:1000800051C000004FC000004DC000004BC0000038
:1000900049C0000047C0000045C0000043C0000048
:1000A00041C000003FC000003DC000003BC0000058
:1000B00039C0000037C0000035C0000033C0000068
:1000C00031C000002FC000002DC000002BC0000078
:1000D00029C0000027C0000025C0000023C0000088
:1000E00021C0000011241FBECFEFD1E2DEBFCDBF83
:1000F00000E00CBF12E0A0E0B2E0EAEFF1E100E0C6
:100100000BBF02C007900D92A231B107D9F723E0CF
:10011000A2E1B2E001C01D92AE3BB207E1F7B7D455
:100120000C94FB086DCFFC0111821082FB0111823F
:1001300010820895CF93DF93EC0184E090E03AD7EA
:1001400099838883FC0113821282DF91CF910895F5
:10015000DB01ED91FC91309761F0DA018D919C917A
:100160001197938382838D919C91FB01918380836E
:100170000895DA012D913C911197FC013183208380
:100180008D919C91DB018D939C930895FC0180815E
:100190009181DA018D939C93A081B181109731F008
:1001A00012968D919C911397918380830895DC0121
:1001B000ED91FC91808191810895FC012081318134
:1001C00081E0232B09F080E008950F931F93CF93D4
:1001D000DF938FEF80930A0187B91AB810920B0151
:1001E00020E030E000E010E0C0E0D0E02DC04F990A
:1001F000FECF1092250110922401E1E2F1E080810E
:10020000816080834F9BFECF109221018091240159
:1002100090912501C817D90720F4C0912401D091ED
:10022000250160E074E284EF90E09E010D2E000C49
:10023000440B550B81D6CA01B90128E532E040E0F4
:1002400050E07AD60F5F1F4F0630110584F2223D31
:1002500031050CF478C02F3081E038077CF53AC0C6
:100260004F99FECF1092250110922401E1E2F1E0B6
:100270008081816080834F9BFECF1092210180910D
:10028000240190912501C817D90720F4C0912401B9
:10029000D091250160E074E284EF90E09E010D2E84
:1002A000000C440B550B48D6CA01B90128E532E0D1
:1002B00040E050E041D60F5F1F4F02C000E010E069
:1002C000063011056CF2243131400CF4B8C080E4E2
:1002D00090E0C0C083E080930B0120E030E0C0E0FC
:1002E000D0E000E010E025C04F99FECF109225012C
:1002F00010922401E1E2F1E08081816080834F9BD4
:10030000FECF1092210180912401909125010817C0
:10031000190720F4009124011091250160E27EE488
:1003200080E090E09801012E000C440B550B04D6A0
:100330002196C630D105C4F2283731050CF482C0AD
:1003400080E290E087C081E080930B0120E030E004
:10035000C0E0D0E000E010E02CC04F99FECF10923A
:10036000250110922401E1E2F1E080818160808327
:100370004F9BFECF10922101809124019091250185
:100380000817190720F4009124011091250160E05D
:1003900074E284EF90E09801012E000C440B550BA1
:1003A000CBD5CA01B90128E532E040E050E0C4D520
:1003B0002196C630D1058CF22E3D31050CF045C09A
:1003C00083E080930B0120E030E0C0E0D0E000E06B
:1003D00010E02CC04F99FECF1092250110922401FD
:1003E000E1E2F1E08081816080834F9BFECF10923B
:1003F000210180912401909125010817190720F40B
:10040000009124011091250160E074E284EF90E0F6
:100410009801012E000C440B550B8ED5CA01B90171
:1004200028E532E040E050E087D52196C630D1057E
:100430008CF21216130664F480E290E00BC080E8A0
:1004400090E008C080E890E005C080E190E002C044
:1004500080E190E0DF91CF911F910F910895E1E647
:10046000F0E020E8208321E02083E1E8F0E0208133
:1004700028602083208122602083109285001092C2
:100480008400E8E8F0E020813181286E3360318318
:10049000208326B3226026BB20E030E007C0B19B5A
:1004A00005C046B3426046BB2F5F3F4F2817390750
:1004B000B4F30895EF92FF920F931F93CF93DF93BE
:1004C000CDB7DEB728970FB6F894DEBF0FBECDBF0D
:1004D0008C0188E0EAE0F2E0DE01119601900D92D5
:1004E0008A95E1F7E12CF12C18C00F5F1F4F043003
:1004F000110514F000E010E0F801EE0FFF1F81E09D
:1005000090E08C0F9D1FE80FF91F808182B98BE06E
:1005100090E0A5DF9FEFE91AF90A82E3E816F104FB
:1005200024F3C80128960FB6F894DEBF0FBECDBFE6
:10053000DF91CF911F910F91FF90EF900895EF926F
:10054000FF920F931F93CF93DF93CDB7DEB728971A
:100550000FB6F894DEBF0FBECDBF8C0188E0EAE095
:10056000F2E0DE01119601900D928A95E1F7E12CFF
:10057000F12C16C00150110912F403E010E0F8014B
:10058000EE0FFF1F81E090E08C0F9D1FE80FF91F19
:10059000808182B98BE090E062DF9FEFE91AF90A6F
:1005A00082E3E816F10434F3C80128960FB6F894F4
:1005B000DEBF0FBECDBFDF91CF911F910F91FF9096
:1005C000EF900895EF92FF920F931F93CF93DF93D5
:1005D000CDB7DEB728970FB6F894DEBF0FBECDBFFC
:1005E0008C0188E0EAE0F2E0DE01119601900D92C4
:1005F0008A95E1F7E12CF12C18C00F5F1F4F0430F2
:10060000110514F000E010E0F801EE0FFF1F81E08B
:1006100090E08C0F9D1FE80FF91F808182B98BE05D
:1006200090E01DDF9FEFE91AF90A84E6E816F1046D
:1006300024F3C80128960FB6F894DEBF0FBECDBFD5
:10064000DF91CF911F910F91FF90EF900895861B3E
:10065000970B8F3F2FEF9207C1F03CF48D3F2FEFA8
:10066000920779F00296E9F01FC082309105A9F057
:100670008330910571F00197B9F4CA0160DFAC01D4
:1006800013C0CA015CDFAC010FC0CA0113DFAC01AB
:100690000BC0CA010FDFAC0107C0CA0193DFAC0178
:1006A00003C0CA018FDFAC01CA010895E1E6F0E0A2
:1006B00020E8208321E02083E1E9F0E02081286028
:1006C0002083208124602083109295001092940052
:1006D000E8E9F0E020813181286E336031832083A6
:1006E00028B3226028BB20E030E007C0C19B05C0D2
:1006F00048B3426048BB2F5F3F4F28173907B4F318
:1007000008951F920F920FB60F92112410920702B4
:10071000109206020F900FBE0F901F9018951F9217
:100720000F920FB60F9211240BB60F922F933F9397
:100730004F935F936F937F938F939F93AF93BF93E9
:10074000EF93FF938AEE92E038DD882329F066EE7E
:1007500072E08AEE92E0E7DC86EB93E0EBDC46EBBE
:1007600053E066EE72E08AEE92E0F2DC2EDD9093CA
:10077000E9028093E8028091E8029091E9028038D2
:10078000910529F410921B0210921A0227C0809141
:10079000E8029091E9028034910539F483E090E019
:1007A00090931B0280931A0219C08091E8029091E5
:1007B000E902809739F481E090E090931B028093E6
:1007C0001A020CC08091E8029091E902409731F43E
:1007D00082E090E090931B0280931A0280911A02AB
:1007E00090911B028F5F88B9E091B603F091B70337
:1007F00080911A0290911B028083A091B603B09160
:10080000B703E0911602F0911702EE0FFF1FE25EB0
:10081000FD4F8081918111968C9380911602909169
:10082000170201969093170280931602E091160228
:10083000F091170280911A0290911B02EE0FFF1F98
:10084000E25EFD4F91838083FF91EF91BF91AF9165
:100850009F918F917F916F915F914F913F912F91D8
:100860000F900BBE0F900FBE0F901F9018951F9208
:100870000F920FB60F9211240BB60F922F933F9346
:100880004F935F936F937F938F939F93AF93BF9398
:10089000CF93DF93EF93FF938AEE92E088DC9093FF
:1008A00019028093180217BC4091B8035091B90304
:1008B000C8E1D2E06981888170E090E0C8DE909361
:1008C000B9038093B803E0911402F0911502888176
:1008D00090E0EE0FFF1FE451FD4F918380838091E4
:1008E00014029091150201969093150280931402C0
:1008F0004CE152E066EE72E08AEE92E047DC6091F5
:10090000080270910902072E000C880B990B25D262
:1009100020E030E048EC52E48AD120E030E04FE7BC
:1009200053E4A7D2ECD167BDFF91EF91DF91CF9156
:10093000BF91AF919F918F917F916F915F914F91F7
:100940003F912F910F900BBE0F900FBE0F901F90F5
:1009500018951F920F920FB60F9211240BB60F929B
:100960002F933F934F935F936F937F938F939F93B7
:10097000AF93BF93CF93DF93EF93FF9317BC80EFB9
:1009800088B988EB9BE06BDDC0911402D091150211
:1009900011C0FE01EE0FFF1FE25EFD4F80819181CD
:1009A0008F5F88B980ED97E05ADD18B88AEF90E044
:1009B00056DD21968091160290911702C817D9072B
:1009C00044F38FE088B988EB9BE049DDC0E0D0E0DC
:1009D00011C0FE01EE0FFF1FE451FD4F8081918198
:1009E0008F5F88B980ED97E03ADD18B88AEF90E024
:1009F00036DD21968091140290911502C817D9070F
:100A000044F36091080270910902072E000C880BD4
:100A1000990BA3D120E030E048EC52E408D120E06B
:100A200030E04FE753E425D26AD167BDFF91EF91E3
:100A3000DF91CF91BF91AF919F918F917F916F91F6
:100A40005F914F913F912F910F900BBE0F900FBE72
:100A50000F901F90189514C08BE282B98BE090E044
:100A6000FEDC8DE282B98BE090E0F9DC85E382B9AF
:100A70008BE090E0F4DC83E382B98BE090E0EFDC84
:100A80008091060290910702892B31F70895CF9348
:100A9000DF938091120290911302892B09F06EC0AE
:100AA000E1E6F0E0C0E8C08381E080838FEF87B9A2
:100AB00081B91092010114B8E0911602F091170269
:100AC000EE0FFF1FE25EFD4F1182108287B91AB848
:100AD000F8948DB384608DBBE9E6F0E0808180629C
:100AE00080838DB382608DBB8081886080838DB36D
:100AF00081608DBB8081826080838DB388608DBB77
:100B00008081806880838DB380618DBB80818260AD
:100B100080837894A0DF83E090E09093B903809382
:100B2000B803C4B984B5836084BD84B5806884BDCE
:100B300085B5826085BD6091080270910902072E1B
:100B4000000C880B990B09D120E030E048EC52E40E
:100B50006ED020E030E04FE753E48BD1D0D067BDBA
:100B600010921D0210921C021092B7031092B6034D
:100B700066EE72E08AEE92E0D6DAFFCF86E990E088
:100B800095DD17BC83E388B988EB9BE068DCC0E0A7
:100B9000D0E010C0FE01EE0FFF1FE451FD4F808139
:100BA000918188B980ED97E05ADC18B88AEF90E01F
:100BB00056DC21968091140290911502C817D9072E
:100BC0004CF317B811B81092010114B8F894DF91E2
:100BD000CF9108951F920F920FB60F9211240BB66A
:100BE0000F922F933F934F935F936F937F938F93C6
:100BF0009F93AF93BF93EF93FF9381E090E0909327
:100C000013028093120243DFFF91EF91BF91AF91E6
:100C10009F918F917F916F915F914F913F912F9114
:100C20000F900BBE0F900FBE0F901F9018950CD019
:100C3000E6C0DED040F0D5D030F021F45F3F19F0AF
:100C4000C7C0511110C1CAC0EBD098F39923C9F3A2
:100C50005523B1F3951B550BBB27AA2762177307C2
:100C6000840738F09F5F5F4F220F331F441FAA1F76
:100C7000A9F333D00E2E3AF0E0E830D09150504036
:100C8000E695001CCAF729D0FE2F27D0660F771FE4
:100C9000881FBB1F261737074807AB07B0E809F0C6
:100CA000BB0B802DBF01FF2793585F4F2AF09E3F5B
:100CB000510568F08DC0D7C05F3FECF3983EDCF380
:100CC000869577956795B795F7959F5FC9F7880FD4
:100CD000911D9695879597F90895E1E0660F771F26
:100CE000881FBB1F621773078407BA0720F0621BB7
:100CF000730B840BBA0BEE1F88F7E095089598D01C
:100D000088F09F5790F0B92F9927B751A0F0D1F0F4
:100D1000660F771F881F991F1AF0BA95C9F712C07E
:100D2000B13081F09FD0B1E008959CC0672F782F3B
:100D30008827B85F39F0B93FCCF3869577956795EA
:100D4000B395D9F73EF490958095709561957F4F56
:100D50008F4F9F4F0895E89409C097FB3EF49095FC
:100D60008095709561957F4F8F4F9F4F9923A9F084
:100D7000F92F96E9BB279395F69587957795679513
:100D8000B795F111F8CFFAF4BB0F11F460FF1BC057
:100D90006F5F7F4F8F4F9F4F16C0882311F096E9EA
:100DA00011C0772321F09EE8872F762F05C0662398
:100DB00071F096E8862F70E060E02AF09A95660F51
:100DC000771F881FDAF7880F9695879597F908950A
:100DD00097F99F6780E870E060E008959FEF80ECEE
:100DE000089500240A941616170618060906089591
:100DF00000240A9412161306140605060895092EF7
:100E00000394000C11F4882352F0BB0F40F4BF2B65
:100E100011F460FF04C06F5F7F4F8F4F9F4F0895A5
:100E200057FD9058440F551F59F05F3F71F047959B
:100E3000880F97FB991F61F09F3F79F08795089580
:100E4000121613061406551FF2CF4695F1DF08C09F
:100E5000161617061806991FF1CF869571056105BC
:100E600008940895E894BB2766277727CB0197F964
:100E700008950BD0C4CFB5DF28F0BADF18F0952362
:100E800009F0A6CFABCF1124EECFCADFA0F3959F18
:100E9000D1F3950F50E0551F629FF001729FBB2761
:100EA000F00DB11D639FAA27F00DB11DAA1F649F0D
:100EB0006627B00DA11D661F829F2227B00DA11DC0
:100EC000621F739FB00DA11D621F839FA00D611D46
:100ED000221F749F3327A00D611D231F849F600D67
:100EE000211D822F762F6A2F11249F5750408AF0A0
:100EF000E1F088234AF0EE0FFF1FBB1F661F771F2C
:100F0000881F91505040A9F79E3F510570F060CF67
:100F1000AACF5F3FECF3983EDCF386957795679513
:100F2000B795F795E7959F5FC1F7FE2B880F911D49
:100F30009695879597F90895052E97FB16F40094DA
:100F40000FD057FD05D014D007FC02D046F408C0DE
:100F500050954095309521953F4F4F4F5F4F0895E5
:100F600090958095709561957F4F8F4F9F4F089515
:100F7000A1E21A2EAA1BBB1BFD010DC0AA1FBB1F9D
:100F8000EE1FFF1FA217B307E407F50720F0A21B0F
:100F9000B30BE40BF50B661F771F881F991F1A947C
:100FA00069F760957095809590959B01AC01BD01A6
:100FB000CF0108950F931F93CF93DF938230910554
:100FC00010F482E090E0E091BC03F091BD0320E0DA
:100FD00030E0A0E0B0E0309719F14081518102810A
:100FE000138148175907C8F08417950769F41097BB
:100FF00031F012960C93129713961C9327C000930E
:10100000BC031093BD0322C02115310519F042170E
:10101000530718F49A01BD01EF01DF01F801DBCF9E
:1010200021153105F9F0281B390B2430310580F4E6
:101030008A819B816115710521F0FB019383828375
:1010400004C09093BD038093BC03FE01329644C05C
:10105000FE01E20FF31F81939193225031093983EE
:1010600028833AC02091BA033091BB03232B41F46B
:1010700020910202309103023093BB032093BA0304
:1010800020910002309101022115310541F42DB764
:101090003EB74091040250910502241B350BE091AC
:1010A000BA03F091BB03E217F307A0F42E1B3F0B2A
:1010B0002817390778F0AC014E5F5F4F24173507CA
:1010C00048F04E0F5F1F5093BB034093BA038193C8
:1010D000919302C0E0E0F0E0CF01DF91CF911F914A
:1010E0000F910895CF93DF93009709F481C0FC011D
:1010F000329713821282A091BC03B091BD03109766
:1011000081F420813181820F931F2091BA033091A5
:10111000BB032817390751F5F093BB03E093BA03DB
:1011200067C0ED0120E030E0CE17DF0740F44A81D0
:101130005B819E0141155105F1F0EA01F5CFD383A2
:10114000C28340815181840F951FC817D90759F474
:1011500088819981840F951F0296918380838A816B
:101160009B81938382832115310529F4F093BD037C
:10117000E093BC033DC0E901FB83EA8349915991A7
:10118000C40FD51FEC17FD0761F480819181840F96
:10119000951F0296E90199838883828193819B83BD
:1011A0008A83E0E0F0E012968D919C91139700976E
:1011B00019F0FD01DC01F7CF8D919C9111979D01F4
:1011C0002E5F3F4F820F931F2091BA033091BB03D4
:1011D0002817390769F4309729F41092BD0310924B
:1011E000BC0302C013821282B093BB03A093BA0364
:0A11F000DF91CF910895F894FFCF2E
:1011FA000000BE032000010032002B002D00350044
:02120A003300AF
:00000001FF
